:020000040800F2
:100000000000022039140008AD060008AF06000801
:10001000B1060008B3060008B5060008000000009D
:10002000000000000000000000000000B70600080B
:10003000B906000800000000BB060008BD06000865
:10004000891400088914000889140008891400081C
:10005000891400088914000889140008891400080C
:1000600089140008891400088914000889140008FC
:1000700089140008891400088914000889140008EC
:1000800089140008891400088914000889140008DC
:1000900089140008891400088914000889140008CC
:1000A00089140008891400088914000889140008BC
:1000B00089140008891400088914000889140008AC
:1000C000891400088914000889140008891400089C
:1000D00089140008C506000889140008891400085E
:1000E000891400088914000889140008891400087C
:1000F000891400088914000889140008891400086C
:10010000891400088914000889140008891400085B
:10011000891400088914000889140008891400084B
:10012000891400088914000889140008891400083B
:10013000891400088914000889140008891400082B
:10014000891400088914000889140008891400081B
:10015000891400088914000889140008891400080B
:1001600089140008891400088914000889140008FB
:100170008914000889140008891400080000000090
:0801800089140008891400082D
:1001900010B5054C237833B9044B13B10448AFF3C1
:1001A00000800123237010BD6000002000000000CB
:1001B0003423000808B5034B1BB103490348AFF3D0
:1001C000008008BD00000000640000203423000807
:1001D000034613F8012B002AFBD1181A0138704787
:1001E00001F0FF01102A2BDB10F0070F08D010F8E8
:1001F000013B013A8B422DD010F0070F42B3F6D1EC
:10020000F0B441EA012141EA014122F007047FF004
:1002100000070023F0E80256083C85EA010586EA5B
:10022000010685FA47F5A3FA87F586FA47F6A5FA97
:1002300087F68EB9EED1F0BC01F0FF0102F00702A3
:1002400032B110F8013B013A83EA010313B1F8D14E
:100250000020704701387047002D06BF354603382F
:10026000073815F0010F07D1013015F4807F02BF68
:10027000013015F4C03F0130F0BC0138704700BFB9
:1002800070B586B0054690F80625012A00F0EF808B
:10029000222A40F0B78190F80835002B40F0CC813D
:1002A00090F80B2590F80C3543EA022600F20D5425
:1002B0009A49204601F009FA20B10521984801F039
:1002C00049F8B7E19749204601F0FFF920B106212E
:1002D000934801F03FF8ADE19349204601F0F5F96C
:1002E00020B108218E4801F035F8A3E18F4920465E
:1002F00001F0EBF920B10921894801F02BF899E1CF
:100300008B49204601F0E1F920B10A21844801F02F
:1003100021F88FE18749204601F0D7F928B1012261
:1003200000217F4801F04AF884E18349204601F02A
:10033000CCF928B101220021794801F058F879E17F
:100340007E49204601F0C1F920B1754800F016FE43
:1003500000206FE17A49204601F0B7F920B17048DA
:1003600000F002FE002065E17649204601F0ADF97B
:10037000A8B100250195029503950495CDF8135079
:100380007049204601F0A1F9F21F411D01A801F0BA
:1003900026FA01AA2946624800F0EBFF4AE16A49C1
:1003A000204601F092F928B10A220021284600F0E7
:1003B0002DFF3FE16549204601F087F900283DD037
:1003C000634B1B780A2B17D00133614A1370604CC2
:1003D0002178534801F024F823780A2B28D8DFE845
:1003E00013F02D012D012D012D012D012D012D01C8
:1003F0000F0015001B002100554B00221A70E6E784
:100400005449554801F004F9002013E1534952487A
:1004100001F0FEF800200DE151494F4801F0F8F8D5
:10042000002007E14F494C4801F0F2F8002001E1BB
:100430004D49494801F0ECF80020FBE022464B49C9
:10044000454801F0E5F8002409E0A31D2B4493F88A
:1004500007254749404801F0DBF80134A4B2B44213
:10046000F3D344493C4801F0D3F80020E2E090F88F
:100470000735152B12D8032BC0F0AB80033B122B92
:1004800000F2A780DFE803F01EA5A5A5A5A5262EEE
:10049000A5A5A5A592A53EA5A5A53600812B00F092
:1004A0009280822B05D134492B4801F0B1F800200D
:1004B000C0E0802B40F08D803049274801F0A8F83B
:1004C0000020B7E090F808252D49234801F0A0F856
:1004D0000020AFE090F808252A491F4801F098F85D
:1004E0000020A7E090F8082527491B4801F090F864
:1004F00000209FE090F808252449174801F088F86B
:10050000002097E02249144801F082F895F8083558
:10051000002B3FD0012B43D000208BE04C23000860
:1005200084000020542300085C2300086423000892
:100530006C23000874230008782300088023000837
:10054000882300089023000898230008A0230008AF
:100550007C000020A823000880000020B0230008B1
:10056000BC230008C4230008D0230008DC230008B3
:10057000F0230008702500085C25000824250008E9
:10058000F423000828240008582400088C240008BC
:10059000B82400082A492B4801F03AF8002049E025
:1005A0002949284801F034F8002043E0254C274928
:1005B000204601F02DF82649204601F029F825486B
:1005C00000F04CFE36E024491E4801F021F80020DE
:1005D00030E022491B4801F01BF8002408E02B19E9
:1005E00093F807251E49174801F012F80134A4B208
:1005F00095F80736A342F2D81A49124801F008F8D4
:10060000002017E018490F4801F002F8002408E024
:100610002B1993F8072512490A4800F0F9FF013415
:10062000A4B295F80736A342F2D80E49054800F067
:10063000EFFF002006B070BD0020FBE70020F9E7C7
:10064000D024000880000020E4240008F4240008DE
:1006500008250008840000204025000874250008B3
:100660008C250008702500089425000810B5044C5E
:10067000204600F017FE0349204600F032FE10BD70
:1006800084000020A825000808B5044800F0D1FC2B
:1006900000B108BD0148FFF7F3FDFAE78400002030
:1006A00008B5FFF7E3FFFFF7EFFFFCE7FEE7FEE724
:1006B000FEE7FEE7FEE770477047704708B500F0B9
:1006C000ABFB08BD08B5024800F000FA08BD00BF4A
:1006D0008C060020026802F10C0353E8003F23F46B
:1006E00090730C3242E800310029F3D1026802F124
:1006F000140353E8003F23F00103143242E80031B1
:100700000029F3D1036B012B05D0202380F8423060
:10071000002303637047026802F10C0353E8003FB3
:1007200023F010030C3242E800310029F3D1ECE74A
:1007300090F84130DBB2212B01D002207047836852
:10074000B3F5805F17D0036A5A1C02621A780368F7
:100750005A60C38C9BB2013B9BB2C3844BB9026805
:10076000D36823F08003D3600268D36843F040036A
:10077000D360002070470369002BE4D1036A1B8813
:100780000268C3F308035360036A02330362E0E7BD
:100790002DE9F04383B005460E4617469946DDF82D
:1007A00028802B681C6836EA04040CBF012400244E
:1007B000BC4228D1B8F1FF3FF3D000F039FBA0EBE9
:1007C0000900404523D8B8F1000F22D02B68DA6821
:1007D00012F0040FE5D0802EE3D0402EE1D01A684D
:1007E00012F0080FDDD0002401941A6801925B68B2
:1007F0000193019B2846FFF76DFF08236B6485F882
:100800004040012000E0002003B0BDE8F083032059
:10081000FAE70320F8E72DE9F04182B01E4690F890
:100820004130DBB2202B56D104460D4690460029BC
:1008300055D00AB901204FE000234364212380F8FA
:10084000413000F0F5FA0746A4F82480A4F8268089
:10085000A368B3F5805F02D04FF0000814E023696D
:100860002BB34FF000080FE0202384F84130032021
:1008700032E038F8023B2268C3F308035360E28C8D
:1008800092B2013A92B2E284E38C9BB293B10096A9
:100890003B46002280212046FFF77AFF0028E3D163
:1008A000002DE6D015F8012B23685A60E7E7A8462B
:1008B0000025E9E700963B46002240212046FFF74D
:1008C00067FF18B9202384F8413005E0202384F81D
:1008D0004130032000E0022002B0BDE8F081012099
:1008E000FAE72DE9F04182B01E4690F84230DBB2C3
:1008F000202B59D104460D469046002958D00AB9FC
:10090000012052E000234364222280F84220036346
:1009100000F08EFA0746A4F82C80A4F82E80A36875
:10092000B3F5805F02D04FF000081CE0236913B1DB
:100930004FF0000817E0A846002514E0202384F8B3
:100940004230032031E023685B68C3F3080328F8D2
:10095000023B03E023685B682B700135E28D92B2A5
:10096000013A92B2E285E38D9BB2C3B100963B4659
:10097000002220212046FFF70BFF0028DED1002DAA
:10098000E1D0A368B3F5805FE4D013B92369002BED
:10099000E0D023685B6803F07F032B70DDE7202342
:1009A00084F84230002000E0022002B0BDE8F0816F
:1009B0000120FAE7704708B50168CA6822F04002D2
:1009C000CA60202280F84120FFF7F4FF002008BD14
:1009D0007047704708B5806B0023C385C384FFF759
:1009E000F8FF08BD704790F84230DBB2222B69D186
:1009F0008368B3F5805F4FD0826AB3F5805F04D01F
:100A0000002B56D10369002B53D103685B68137028
:100A1000836A01338362C38D9BB2013B9BB2C38562
:100A2000002B51D100B583B00268D36823F02003B6
:100A3000D3600268D36823F48073D360026853697B
:100A400023F001035361202380F8423000234363E5
:100A5000036B012B33D100230363026802F10C0303
:100A600053E8003F23F010030C3242E80031002924
:100A7000F3D103681A6812F0100F06D00022019219
:100A80001A6801925B680193019B818DFFF7AAFFB1
:100A9000002003B05DF804FB0269002AACD1826A31
:100AA00003685B68C3F308031380836A02338362BD
:100AB000B1E703685B6803F07F031370A8E7FFF7F3
:100AC00087FFE5E7022070470020704710B582B02D
:100AD000044602681368D068516913F00F0F09D1FA
:100AE00013F0200F0CD010F0200F09D02046FFF794
:100AF0007AFF16E011F0010115D110F4907F12D1A8
:100B0000216B012979D013F0800F03D010F0800FF2
:100B100040F0148113F0400F03D010F0400F40F06C
:100B2000118102B010BD13F0010F06D010F4807FC8
:100B300003D0626C42F00102626413F0040F04D02F
:100B400019B1626C42F00202626413F0020F04D029
:100B500019B1626C42F00402626413F0080F07D00E
:100B600010F0200F00D119B1626C42F008026264EB
:100B7000626C002AD5D013F0200F02D010F0200FA5
:100B800029D123685B6903F04003626C12F0080FFF
:100B900000D163B32046FFF79DFD23685B6913F026
:100BA000400F20D0226802F1140353E8003F23F0E5
:100BB0004003143242E800310029F3D1E36B73B1F2
:100BC000624A1A65E06B00F013F90028A9D0E06BC7
:100BD000036D9847A5E72046FFF705FFD1E72046BC
:100BE000FFF7F7FE9DE72046FFF7F3FE99E7204663
:100BF000FFF7EFFE0023636493E713F0100F82D03A
:100C000010F0100F3FF47FAF00230193136801939E
:100C100053680193019B536913F0400F52D0E26B6C
:100C200013685B689BB2002B3FF47BAFA18D9942A8
:100C30007FF677AFE385D369B3F5807F37D022683D
:100C400002F10C0353E8003F23F480730C3242E8B6
:100C500000310029F3D1226802F1140353E8003F68
:100C600023F00103143242E800310029F3D1226855
:100C700002F1140353E8003F23F04003143242E82A
:100C800000310029F3D1202384F84230002323636C
:100C9000226802F10C0353E8003F23F010030C32EA
:100CA00042E800310029F3D1E06B00F057F802234D
:100CB0006363A18DE38D9BB2C91A89B22046FFF709
:100CC00091FE2EE7A18DE38D9BB2C91A89B2E38D07
:100CD0009BB2002B3FF425AF00293FF422AF2268DE
:100CE00002F10C0353E8003F23F490730C3242E806
:100CF00000300028F3D1226802F1140353E8003FCA
:100D000023F00103143242E800300028F3D12023FD
:100D100084F8423000232363226802F10C0353E875
:100D2000003F23F010030C3242E800300028F3D1DA
:100D3000022363632046FFF755FEF2E62046FFF7E5
:100D4000F7FCEEE62046FFF736FEEAE6D509000896
:100D50000AB18161704709048161704770B504462A
:100D6000866D00F065F894F83530DBB2022B06D0C2
:100D700080236365002384F83430012070BD05466C
:100D80002268136823F0160313602268536923F066
:100D900080035361236CE3B12268136823F00803D6
:100DA00013602268136823F00103136023681B6833
:100DB00013F0010F11D000F03BF8431B052BF5D9C0
:100DC00020236365032084F83500002384F8343041
:100DD000D4E7A36C002BDFD1E3E7E26D3F23934020
:100DE000B360012384F83530002084F83400C5E76F
:100DF00090F83530DBB2022B03D08023436501200D
:100E00007047052380F835300268136823F001032A
:100E10001360002070470000034A1168034B1B78E1
:100E20000B441360704700BFD40600200000002070
:100E3000014B1868704700BFD406002038B504463F
:100E4000FFF7F6FF0546B4F1FF3F02D0044B1B78D5
:100E50001C44FFF7EDFF401BA042FAD338BD00BF92
:100E600000000020034AD2F8883043F47003C2F82F
:100E70008830704700ED00E010B503460C4A0D497C
:100E80000D48006840B10C4800680344521A934270
:100E900006D8094A136010BD0748084C0460F2E701
:100EA00000F070FC0C2303604FF0FF30F3E700BF4D
:100EB0000000022000040000D806002028080020BE
:100EC00070B50C461646002506E0AFF300802146BB
:100ED00001F8010B01350C46B542F6DB304670BD1A
:100EE00070B50C461646002504E014F8010BAFF36C
:100EF00000800135B542F8DB304670BD4FF0FF3061
:100F000070474FF400534B6000207047012070473A
:100F10000020704708B54FF0FF330068FFF77BFCF7
:100F200008BD08B54FF0FF330068FFF7DAFC08BDD5
:100F300008B531B900224FF400710548FFF708FFEA
:100F400008BD01224FF400710148FFF701FFF7E7E8
:100F50000004024008B5012240210248FFF7F8FED4
:100F600008BD00BF0004024008B5012280210248EC
:100F7000FFF7EEFE08BD00BF0004024008B50022E6
:100F800080210248FFF7E4FE08BD00BF00040240D4
:100F900010B582B004460023019390F80535013363
:100FA000AA228DF8042000228DF805208DF8063045
:100FB00090F804348DF807300A20FFF73FFF042231
:100FC0000DEB02012046FFF7A5FF9DF805309DF8C7
:100FD000062013449DF8072052FA83F38DF803305E
:100FE00094F805257AB99DF803305B428DF80330FB
:100FF00001220DF103012046FFF78CFF0A20FFF7C5
:101000001DFF02B010BD04F205412046FFF782FF2C
:10101000002309E0E21892F805249DF803100A4421
:101020008DF8032001339BB294F805259A42F1D83C
:10103000D9E770B582B0054600230193C8249DF816
:101040000430AA2B0ED0012201A92846FFF769FF20
:101050000120FFF7F3FE631E13F0FF04EFD14FF002
:10106000FF3052E00A20FFF7E9FE03220DF10501EF
:101070002846FFF756FF032858D19DF80630013B5C
:1010800085F807369DF8073085F80635002495F871
:101090000766A64205D90120FFF7D0FE0134A4B2AD
:1010A000F5E7324605F207512846FFF73AFF864238
:1010B0003FD100238DF8033001220DF103012846B2
:1010C000FFF72FFF01282ED19DF805209DF806304F
:1010D0001A449DF8073053FA82F2D2B2002306E098
:1010E000E91891F807150A44D2B201339BB295F87A
:1010F00007169942F4D85242D2B29DF80330934277
:1011000011D195F8063513B9002002B070BD142234
:1011100085F8042485F80534012385F8053528462B
:10112000FFF736FFF0E74FF0FF30EEE74FF0FF300C
:10113000EBE74FF0FF30E8E710B50446FFF728FF74
:101140002046FFF776FFB0F1FF3F0FD094F8063549
:10115000B3B994F8042494F807359A4213D194F85B
:101160000736022B12D194F8080510BD2046FFF770
:101170000FFF2046FFF75DFFB0F1FF3FE6D1F4E738
:101180004FF0FF30F1E74FF0FF30EEE74FF0FF3068
:10119000EBE738B504460D462046FFF74AFF94F8C2
:1011A0000635AB42F8D138BD38B504462046FFF7C6
:1011B00040FF0028FAD0002584F806554FF48072CD
:1011C000294604F2075000F078FA84F8075638BD33
:1011D00038B504460C4D00224FF400712846FFF745
:1011E000B7FD4FF47A70FFF729FE4FF47A70FFF7DE
:1011F00025FE01224FF400712846FFF7A9FD204685
:10120000FFF7D2FF38BD00BF0004024008B54FF021
:10121000020C80F804C480F8051480F8062480F8D5
:1012200005C5FFF789FF08BD38B50446FFF7BCFFC9
:10123000512200212046FFF7E9FF054652220021F6
:101240002046FFF7E3FF054301212046FFF7A1FFFA
:1012500094F80735022BF7D1284638BD38B5044637
:10126000FFF7A2FF5D2200212046FFF7CFFF0546D2
:1012700001212046FFF78DFF94F80735012BF7D1A8
:10128000284638BD38B50446FFF78EFF56220021A8
:101290002046FFF7BBFF05460E212046FFF779FFEA
:1012A000284638BD38B50446FFF754FE01212046D4
:1012B000FFF73EFE2046FFF761FE2046FFF788FF5E
:1012C0002046FFF7B1FF05462046FFF7DBFF054349
:1012D0002046FFF7C3FF05432046FFF765FF28467A
:1012E00038BD2DE9F04104460F460846FEF770FF71
:1012F000C6B21F2E2BD82046FFF756FF052384F8D1
:1013000004343246394604F2054000F068FA84F8A5
:1013100005652046FFF710FF8046352384F8043426
:10132000002384F8053484F8063484F807643246D0
:10133000394604F5816000F052FA033684F80565F9
:101340002046FFF7F9FE48EA0000BDE8F0814FF0C3
:10135000FF30FAE708B5042280F80424002280F860
:10136000052480F80614022280F80525FFF7E4FE24
:1013700008BD70B504460E4615461046FEF728FF18
:10138000132818D8002384F8043484F8056404F280
:1013900006462846FEF71CFF02462946304600F066
:1013A0001EFA2846FEF714FF013084F80505204692
:1013B000FFF7C2FE70BD4FF0FF30FBE708B54FF0FE
:1013C000230C80F804C480F8051480F80624012258
:1013D00080F80724002280F8082480F8092480F887
:1013E0000A24062280F80525FFF7A6FE08BD08B5E9
:1013F0004FF0230C80F804C480F8051480F806240C
:10140000022280F80724002280F8082480F80924AA
:1014100080F80A24062280F80525FFF78DFE08BD16
:1014200008B51C2280F8042480F80514002280F8F6
:101430000624FFF781FE08BDDFF834D0FFF712FD68
:101440000C480D490D4A002302E0D458C45004331F
:10145000C4188C42F9D30A4A0A4C002301E01360F5
:101460000432A242FBD300F093F9FFF719F9704759
:10147000000002200000002060000020FC25000881
:101480006000002028080020FEE70000002310B5BF
:101490000446C0E90033C0E90433836081814366B8
:1014A000C2818361194608225C3000F006F90D4BB9
:1014B00063620D4BA3620D4BE3620D4B23630D4B37
:1014C00024629C4206D003F16802944202D0D033D9
:1014D0009C4205D104F15800BDE8104000F07CB9F1
:1014E00010BD00BF35160008571600088F160008FB
:1014F000B3160008DC060020024A0349034800F046
:1015000069B800BF040000209520000814000020E6
:1015100041680C4B994210B5044601D000F0BAFD69
:10152000A168094B994202D0204600F0B3FDE16862
:10153000064B994204D02046BDE8104000F0AABDF9
:1015400010BD00BFDC06002044070020AC070020CF
:1015500010B50B4B0B4C0C4A1A602046002204219C
:10156000FFF794FF04F1680001220921FFF78EFFC5
:1015700004F1D0000222BDE810401221FFF786BF1F
:1015800014080020DC060020F9140008014800F0CF
:1015900024B900BF1D080020014800F01FB900BF9A
:1015A0001D08002010B50446FFF7F0FF236A1BB1A9
:1015B000BDE81040FFF7F0BF044B2362044B1B68EB
:1015C000002BF5D1FFF7C4FFF2E700BF11150008AB
:1015D000140800202DE9F8430746884614460026E3
:1015E000D4E90195B9F1010905D52468002CF7D19A
:1015F0003046BDE8F883AB89012B07D9B5F90E3029
:10160000013303D029463846C04706436835E9E729
:101610000FB407B5064904AB086853F8042B81687A
:10162000019300F00DFA03B05DF804EB04B07047CD
:101630001000002010B50C46B1F90E1000F07EF835
:101640000028ABBF636DA3891B1823F48053ACBF84
:101650006365A38110BD2DE9F0411F468B89DB0531
:1016600005460C46164605D5B1F90E100223002298
:1016700000F052F8A389B4F90E1023F48053A3812B
:1016800032463B462846BDE8F04100F069B810B547
:101690000C46B1F90E1000F03FF8431CA38915BFAA
:1016A000606523F4805343F48053A38118BFA38162
:1016B00010BDB1F90E1000F01FB80244034693426A
:1016C00000D1704703F8011BF9E70A7870B56AB9D1
:1016D00070BD9A4209D10C46054614F8013F002B13
:1016E000F6D015F8016F9E42F7D001300378002B39
:1016F000EFD11846ECE7000038B5064D002304464C
:1017000008462B60FFF7FAFB431C02D12B6803B19C
:10171000236038BD1808002038B5074D0446084638
:10172000114600222A601A46FFF7F2FB431C02D141
:101730002B6803B1236038BD1808002038B5074D69
:1017400004460846114600222A601A46FFF7B8FBF5
:10175000431C02D12B6803B1236038BD1808002058
:1017600038B5074D04460846114600222A601A463D
:10177000FFF7B6FB431C02D12B6803B1236038BDD1
:1017800018080020014B1868704700BF10000020A7
:1017900070B50D4D0D4C641BA4100026A64209D156
:1017A0000B4D0C4C00F0C6FD641BA4100026A64295
:1017B00005D170BD55F8043B98470136EEE755F862
:1017C000043B98470136F2E7F4250008F4250008A9
:1017D000F4250008F82500087047704770470A4450
:1017E000914200F1FF3300D1704710B511F8014B61
:1017F00003F8014F9142F9D110BD000038B50546FC
:10180000002941D051F8043C0C1F002BB8BFE4184C
:1018100000F0E0F81D4A136833B96360146028468D
:10182000BDE8384000F0DCB8A34208D92068211890
:101830008B4201BF19685B6809182160EDE71A4601
:101840005B680BB1A342FAD911685018A0420BD1C2
:1018500020680144501883421160E0D118685B6829
:10186000536008441060DAE702D90C232B60D6E7F6
:10187000206821188B4204BF19685B68636004BF4D
:10188000091821605460CAE738BD00BF2408002051
:1018900070B50F4E0C463168054611B900F0B6FC24
:1018A00030602146284600F0B1FC431C03D14FF0C4
:1018B000FF34204670BDC41C24F00304A042F8D0BD
:1018C000211A284600F0A2FC0130F2D1EFE700BF58
:1018D000200800202DE9F843CD1C25F0030508352C
:1018E0000C2D38BF0C25002D064601DBA94204D97A
:1018F0000C2333600020BDE8F883DFF8D48000F0CB
:1019000069F8D8F800301C4644BB29463046FFF73A
:10191000BFFF431C044658D1D8F800402746002F8B
:1019200043D1002C4BD023683946304604EB0309E1
:1019300000F06CFC814542D121686D1A2946304681
:10194000FFF7A6FF01303AD023682B442360D8F874
:1019500000305A6862BBC8F800700FE02268521B62
:1019600020D40B2A17D96119A342256018BF5960EA
:10197000636808BFC8F8001062514B60304600F041
:101980002FF804F10B00231D20F00700C21A1CBF22
:101990001B1AA350AFE76268A3420CBFC8F800202F
:1019A0005A60EBE723466468AEE73C467F68B6E7DB
:1019B0001A465B68A342FBD100235360DEE70C2389
:1019C0003360304600F00CF894E70560D6E700BFBE
:1019D000240800200148FFF700BF00BF1C080020BA
:1019E0000148FFF7FBBE00BF1C0800209368013BC5
:1019F000002B10B4936008DA9469A34201DB0A2932
:101A000003D15DF8044B00F06DBB1368581C1060E7
:101A1000197008465DF8044B7047F8B506460F4646
:101A20001446D518AC4201D1002007E014F8011B80
:101A30003A463046FFF7DAFF431CF3D1F8BD000009
:101A40002DE9F04F0D469DB014469846064618B154
:101A5000036A0BB9FFF7A6FD6B6ED90705D4AB89F6
:101A60009A0502D4A86DFFF7B8FEAB891B0701D514
:101A70002B699BB92946304600F072FB70B16B6E42
:101A8000DC0704D54FF0FF301DB0BDE8F08FAB8907
:101A90009805F7D4A86DFFF7A1FEF3E7002309939B
:101AA00020238DF82930CDF80C803023DFF8AC816D
:101AB0008DF82A304FF0010923469A4613F8012B7E
:101AC0000AB1252AF9D1BAEB040B0BD05B462246AA
:101AD00029463046FFF7A1FF013000F0A780099AA0
:101AE0005A4409929AF80030002B00F09F8000239E
:101AF0004FF0FF32CDE905230AF1010A0493079361
:101B00008DF853301A935446052214F8011B53489C
:101B1000FEF766FB049AD8B9D10644BF20238DF89E
:101B20005330130744BF2B238DF853309AF80030FD
:101B30002A2B15D0079A544600204FF00A0C214654
:101B400011F8013B303B092B4BD9B0B1079214E09F
:101B5000A0EB080309FA03F313430493A246D2E768
:101B6000039B191D1B680391002BBBBF5B4242F016
:101B7000020207930793B8BF049223782E2B0AD151
:101B800063782A2B32D1039B1A1D1B68039243EA08
:101B9000E37302340593DFF8D4A021780322504682
:101BA000FEF71EFB38B1049BA0EB0A0040228240E6
:101BB00013430134049314F8011B29488DF82810AD
:101BC0000622FEF70DFB00283FD0264B1BBB039BD4
:101BD000073323F0070308330393099B3B4409931E
:101BE0006AE70CFB02320C460120A8E7002301340F
:101BF000059319464FF00A0C204610F8012B303A95
:101C0000092A03D9002BC6D00591C4E70CFB01219A
:101C100004460123F0E703AB00932A46124B04A9C4
:101C20003046AFF300800746781CD6D16B6ED907DB
:101C300005D4AB899A0502D4A86DFFF7CFFDAB8917
:101C40005B063FF51FAF09981EE703AB00932A46DA
:101C5000054B04A9304600F079F8E4E7B9250008FF
:101C6000C3250008000000001B1A0008BF2500085B
:101C70002DE9F047164698468A680B69DDF82090F2
:101C80009342B8BF1346336091F8432007460C4691
:101C90000AB1013333602368990642BF33680233C7
:101CA0003360256815F0060506D104F1190AE368CA
:101CB00032689B1AAB4226DC94F843302268003B22
:101CC00018BF012392062BD404F143024146384643
:101CD000C84701301ED02368226903F00603042B95
:101CE00002BFE5683368ED1AA3680CBF25EAE57505
:101CF00000259342C4BF9B1AED1800261A34B54242
:101D00001AD1002008E00123524641463846C84710
:101D1000013003D14FF0FF30BDE8F0870135C6E751
:101D2000E1185A1C302081F84300224494F84510F1
:101D300082F843100233C7E7012322464146384662
:101D4000C8470130E6D00136D9E700002DE9FF474A
:101D50000F7E0C9E782F914680460C469A4601F1E4
:101D6000430207D8622F0AD8002F00F0D280582FE4
:101D700000F0B98004F1420684F842703AE0A7F11D
:101D80006303152BF6D801A151F823F0E51D0008D7
:101D9000F91D0008751D0008751D0008751D000857
:101DA000751D0008F91D0008751D0008751D000847
:101DB000751D0008751D0008F91E0008231E000887
:101DC000B31E0008751D0008751D00081B1F0008C4
:101DD000751D0008231E0008751D0008751D0008EC
:101DE000BB1E000833681A1D1B68326004F14206EE
:101DF00084F8423001239DE033682068191D31606A
:101E0000060601D51D6803E04506FBD5B3F9005071
:101E1000002D03DA2D236D4284F8433059480A23FC
:101E200011E021683368080653F8045B02D44906C0
:101E300048BFADB26F2F5348336014BF0A23082345
:101E4000002184F843106668A660002EA2BF2168B6
:101E500021F0040121600DB9002E4BD01646B5FBD0
:101E6000F3F103FB1157C75D06F8017D2F46BB4216
:101E70000D46F4D9082B0BD12368DF0708D5236959
:101E800061689942DEBF302306F8013C06F1FF3657
:101E9000921B2261CDF800A04B4603AA2146404682
:101EA000FFF7E6FE01304AD14FF0FF3004B0BDE845
:101EB000F087236843F0200323603348782784F8B1
:101EC0004570236831681F0651F8045B02D45F0631
:101ED00048BFADB23160D90744BF43F0200323604F
:101EE0001DB11023ACE72748E9E7236823F020035E
:101EF0002360F6E71646BDE7336825686169181D5B
:101F000030602E061B6801D5196002E06806FBD51B
:101F10001980002323611646BCE733681A1D32601E
:101F20001E68626800213046FEF75AF908B1801B2E
:101F3000606063682361002384F84330AAE7236963
:101F4000324649464046D0470130ADD023689B0712
:101F500013D4E068039B9842B8BF1846A6E7012354
:101F6000324649464046D04701309DD00135E368AE
:101F700003995B1AAB42F2DCEBE7002504F119068A
:101F8000F5E700BFCA250008DB250008B1F90C20E1
:101F90002DE9F041160705460C4654D44B68002B3A
:101FA00002DC0B6C002B48DDE66A002E45D00023D6
:101FB00012F480522F68216A2B6030D0626DA389A1
:101FC000590705D56368D21A636B0BB1236CD21A1B
:101FD0000023E66A216A2846B047431CA38906D13C
:101FE00029681D292BD82A4A0A41D60727D400225E
:101FF0006260D9042269226004D5421C01D12B6899
:1020000003B96065616B2F60B9B104F14403994273
:1020100002D02846FFF7F2FB002363630DE00123A3
:102020002846B0470246501CC9D12B68002BC6D0A9
:102030001D2B01D0162B1ED12F60002022E043F073
:1020400040031BB21BE00F69002FF6D093070E6808
:1020500008BF4B690F6018BF0023A6EB07088B6011
:10206000B8F1000FE9DD216AA66A43463A462846E0
:10207000B047002808DCB4F90C3043F04003A381DA
:102080004FF0FF30BDE8F0810744A8EB0008E7E718
:10209000FEFFBFDF38B50B6905460C4613B90025B6
:1020A000284638BD18B1036A0BB9FFF77BFAB4F9BB
:1020B0000C30002BF3D0626ED00704D4990502D403
:1020C000A06DFFF78AFB28462146FFF75FFF636E8E
:1020D000DA070546E4D4A3899B05E1D4A06DFFF798
:1020E0007DFBDDE7F8B50E461446054618B1036AD8
:1020F0000BB9FFF757FAA369A360A3891A0701D5A3
:10210000236943B92146284600F02AF818B14FF058
:10211000FF373846F8BD23682269981A6369F6B21A
:102120008342374605DC21462846FFF7B3FF0028E7
:10213000EDD1A368013BA36023685A1C22601E7086
:102140006269431C9A4204D0A389DB07E1D50A2EB9
:10215000DFD121462846FFF79DFF0028D9D0D6E7DA
:1021600038B5294B054618680C4618B1036A0BB9F7
:10217000FFF718FAB4F90C30190722D4DA0607D49D
:1021800009222A6043F04003A3814FF0FF3033E07F
:10219000580712D5616B41B104F14403994202D052
:1021A0002846FFF72BFB00236363A38923F0240356
:1021B000A3810023636023692360A38943F008039C
:1021C000A38123694BB9A38903F42073B3F5007F7E
:1021D00003D02146284600F04FF8B4F90C3013F034
:1021E00001020AD00022A26062695242A261226901
:1021F00042B913F08000C5D138BD990758BF626954
:10220000A260F4E70020F7E71000002038B5064D83
:102210000023044608462B60FEF72EFE431C02D125
:102220002B6803B1236038BD1808002070B50C4638
:10223000B1F90E10002996B015461E460DDAA38995
:1022400013F0800F4FF0000114BF40234FF4806360
:10225000002031602B6016B070BD6A4600F048F86F
:102260000028ECDB019901F47041A1F500535942BB
:1022700059414FF48063EBE78B89F7B59D0706461C
:102280000C4607D504F147032360236101236361F2
:1022900003B0F0BD01AB6A46FFF7C8FF009F0546DB
:1022A00039463046FFF716FB48B9B4F90C309A05A9
:1022B000EED423F0030343F00203A381E2E7A389F2
:1022C000206043F08003A381019BC4E904075BB154
:1022D000B4F90E10304600F01DF828B1A38923F0A0
:1022E000030343F00103A381A3891D43A581CFE725
:1022F00038B5074D00230446084611462B60FEF70B
:1023000000FE431C02D12B6803B1236038BD00BF1F
:102310001808002038B5064D0023044608462B60F7
:10232000FEF7F4FD431C02D12B6803B1236038BDD6
:1023300018080020F8B500BFF8BC08BC9E467047DE
:0C234000F8B500BFF8BC08BC9E46704712
:10234C00706C6179000000007061757365000000AD
:10235C0073746F70000000006E65787400000000EC
:10236C00707265760000000075700000646F776E07
:10237C0000000000756E6D75746500006D757465F8
:10238C000000000063616C6C00000000766F6963F4
:10239C00650000006D6F646500000000706F700DCB
:1023AC000A0A000064616E63650D0A0A00000000F1
:1023BC00726E620D0A0A000075736572310D0A0A9D
:1023CC0000000000756E6B6E6F776E0D0A0A0000D0
:1023DC0020556E6B6E6F776E20636F6D6D616E64E2
:1023EC003A20000025630000203C2050616972698E
:1023FC006E67207375636365737366756C6C202DE3
:10240C00206C696E6B656420646576696365204930
:10241C00443A2025750D0A0A00000000203C205388
:10242C00434F206C696E6B20636F6E6E65637465D1
:10243C0064202D206C696E6B65642064657669631D
:10244C00652049443A2025750D0A0A00203C20538A
:10245C00434F206C696E6B20646973636F6E6E659D
:10246C0063746564202D206C696E6B6564206465F3
:10247C00766963652049443A2025750D0A0A0000E7
:10248C00203C2041434C20636F6E6E656374656421
:10249C00202D206C696E6B65642064617461206210
:1024AC006173653A2025750D0A0A0000203C204115
:1024BC00434C20646973636F6E6E6563746564204E
:1024CC002D200000646973636F6E6E656374696FB1
:1024DC006E0D0A0A000000006C696E6B206C6F7345
:1024EC00730D0A0A00000000203C205374616E64D6
:1024FC0062792073746174650D0A0A00203E2052C3
:10250C0065456E7465722070616972696E67206DC5
:10251C006F64650D0A0A0000203C20556E6B6E6FCF
:10252C00776E20617564696F20736F757263650DCA
:10253C000A0A0000203C204155582D494E20617557
:10254C0064696F20736F757263650D0A0A00000071
:10255C00203C204132445020617564696F20736FB8
:10256C00757263650D0A0A00203C204556454E5491
:10257C002042544D2053544154453A200000000051
:10258C003078252E32582000203C204556454E549C
:10259C00203078252E32583A200000004254204139
:1025AC007564696F203320636C69636B00232D3075
:1025BC002B2000686C4C006566674546470030313F
:1025CC00323334353637383941424344454600308E
:1025DC0031323334353637383961626364656600BD
:0825EC00E4DBFF7F01000000A9
:0425F400B501000825
:0425F8009101000845
:1025FC00010000000000000003000000DC060020C9
:10260C001400002000000000DC060020440700201D
:10261C00AC070020000000000000000000000000DB
:10262C00000000000000000000000000000000009E
:10263C00000000000000000000000000000000008E
:10264C00000000000000000000000000000000007E
:0400000508001439A2
:00000001FF
